{
  "contractName": "DuaraToken",
  "abi": [
    {
      "inputs": [],
      "payable": false,
      "stateMutability": "nonpayable",
      "type": "constructor"
    },
    {
      "constant": true,
      "inputs": [],
      "name": "totalSupply",
      "outputs": [
        {
          "internalType": "uint256",
          "name": "",
          "type": "uint256"
        }
      ],
      "payable": false,
      "stateMutability": "view",
      "type": "function"
    }
  ],
  "bytecode": "0x6080604052348015600f57600080fd5b50620f42406000819055506084806100286000396000f3fe6080604052348015600f57600080fd5b506004361060285760003560e01c806318160ddd14602d575b600080fd5b60336049565b6040518082815260200191505060405180910390f35b6000548156fea265627a7a7231582044df32ae5965f9dccdc4a31bfdb7ff1be2088da3eb31685e38bb31c8c06d6b3564736f6c63430005100032",
  "source": "pragma solidity ^0.5.0;\r\n\r\ncontract DuaraToken {\r\n\r\n\t// set the total no. of tokens\r\n\tuint256 public totalSupply;\r\n\r\n\t// constructor\r\n  \tconstructor() public {\r\n    \ttotalSupply = 1000000;\r\n  \t}\r\n\r\n  \t\r\n  \t// read the total no. of tokens\r\n}\r\n\r\n",
  "sourcePath": "E:/projects/blockchain/dhc/contracts/DuaraToken.sol",
  "compiler": {
    "name": "solc",
    "version": "0.5.16+commit.9c3226ce.Emscripten.clang"
  },
  "schemaVersion": "3.2.5",
  "updatedAt": "2020-09-11T06:30:44.991Z",
  "networkType": "ethereum",
  "devdoc": {
    "methods": {}
  },
  "userdoc": {
    "methods": {}
  }
}